:100000000C945D000C9485000C9485000C94850084
:100010000C9485000C9485000C94A3140C9485001A
:100020000C9485000C9485000C9485000C9485003C
:100030000C9485000C9485000C9485000C9485002C
:100040000C947A070C9485000C94EA070C94C4076E
:100050000C9485000C9485000C9485000C9485000C
:100060000C9485000C9485000000000024002700FB
:100070002A0000000000250028002B0004040404CE
:100080000404040402020202020203030303030342
:10009000010204081020408001020408102001021F
:1000A00004081020000000080002010000030407FB
:1000B0000000000000000000E21411241FBECFEF7A
:1000C000D8E0DEBFCDBF13E0A0E0B1E0E8E8FFE29A
:1000D00002C005900D92A632B107D9F725E0A6E23D
:1000E000B3E001C01D92AE35B207E1F710E0CDE5F7
:1000F000D0E004C02197FE010E94BC17CC35D10787
:10010000C9F70E94E6140C944D160C940000E1EB24
:10011000F0E02491EDE9F0E09491E9E8F0E0E49179
:10012000EE23C9F0222339F0233001F1A8F4213065
:1001300019F1223029F1F0E0EE0FFF1FEE58FF4FCA
:10014000A591B4912FB7F894EC91811126C09095A8
:100150009E239C932FBF08952730A9F02830C9F023
:10016000243049F7209180002F7D03C0209180002A
:100170002F7720938000DFCF24B52F7724BDDBCFEE
:1001800024B52F7DFBCF2091B0002F772093B000B6
:10019000D2CF2091B0002F7DF9CF9E2BDACFEDE9A1
:1001A000F0E02491E9E8F0E08491882399F090E070
:1001B000880F991FFC01E859FF4FA591B491FC01EC
:1001C000EE58FF4F859194918FB7F894EC91E22B04
:1001D000EC938FBF0895FC0144815581608171814A
:1001E000E091BD04F091BE040280F381E02D8DEB1F
:1001F00094E00994259A2D9A0895789484B58260A4
:1002000084BD84B5816084BD85B5826085BD85B5BA
:10021000816085BDEEE6F0E0808181608083E1E869
:10022000F0E01082808182608083808181608083A1
:10023000E0E8F0E0808181608083E1EBF0E08081A4
:1002400084608083E0EBF0E0808181608083EAE776
:10025000F0E08081846080838081826080838081FF
:10026000816080838081806880831092C1000895BE
:10027000FC01538D448D252F30E0842F90E0821BAC
:10028000930B541710F0CF96089501970895FC0131
:10029000918D828D981761F0A28DAE0FBF2FB11D89
:1002A0005D968C91928D9F5F9F73928F90E00895E1
:1002B0008FEF9FEF0895FC01918D828D981731F09B
:1002C000828DE80FF11D858D90E008958FEF9FEFEF
:1002D0000895FC01918D228D892F90E0805C9F4FC5
:1002E000821B91098F73992708958DEB94E00E94EA
:1002F000690121E0892B09F420E0822F08950E94F2
:10030000750181110C940000089580E090E0892B24
:1003100011F00C947F01089580E090E0892B11F09A
:100320000C947F010895FC01A48DA80FB92FB11D75
:10033000A35ABF4F2C91848D90E001968F7399271B
:10034000848FA689B7892C93A089B1898C918370F9
:1003500080648C93938D848D981306C00288F389F2
:10036000E02D80818F7D80830895EF92FF920F931F
:100370001F93CF93DF93EC0181E0888F9B8D8C8D51
:1003800098131AC0E889F989808185FF15C09FB745
:10039000F894EE89FF896083E889F9898081837008
:1003A000806480839FBF81E090E0DF91CF911F91B7
:1003B0000F91FF90EF900895F62E0B8D10E00F5FD8
:1003C0001F4F0F731127E02E8C8D8E110CC00FB6AE
:1003D00007FCFACFE889F989808185FFF5CFCE0146
:1003E0000E949301F1CFEB8DEC0FFD2FF11DE35A2D
:1003F000FF4FF0829FB7F8940B8FEA89FB898081C9
:100400008062CFCFCF93DF93EC01888D8823B9F042
:10041000AA89BB89E889F9898C9185FD03C080810F
:1004200086FD0DC00FB607FCF7CF8C9185FFF2CF8C
:10043000808185FFEDCFCE010E949301E9CFDF914E
:10044000CF910895AF92BF92CF92DF92EF92FF9239
:100450000F931F93CF93DF936C017B018B01040FEC
:10046000151FEB015E01AE18BF08C017D10759F088
:100470006991D601ED91FC910190F081E02DC601CA
:100480000995892B79F7C501DF91CF911F910F91C4
:10049000FF90EF90DF90CF90BF90AF9008950895B8
:1004A0000E94FA002FEF87EA91E6215080409040A9
:1004B000E1F700C000001D9AF5CF0E94FA002FEF6F
:1004C00080E792E0215080409040E1F700C00000BA
:1004D0001D9AF5CFFC0101900020E9F73197AF019B
:1004E000481B590BE091BD04F091BE040280F381DA
:1004F000E02DBC018DEB94E009948F929F92AF9216
:10050000BF920F931F93CF93DF93CDB7DEB7A19721
:100510000FB6F894DEBF0FBECDBF19A2423008F46B
:100520004AE08E010F5D1F4F842E912CB12CA12C1F
:10053000A50194010E949A17E62FB901CA01EA3079
:10054000F4F4E05DD801EE938D01232B242B252BB1
:1005500079F790E080E0109719F0CD010E946A02CF
:10056000A1960FB6F894DEBF0FBECDBFDF91CF913D
:100570001F910F91BF90AF909F908F900895E95C6D
:10058000E1CFCF93DF930E946A02EC0189E191E011
:100590000E946A028C0F9D1FDF91CF9108950E94E7
:1005A000CF00C8EED3E080912B0390912C03892BD0
:1005B00021F08CE191E00E94C10281E00E9487005D
:1005C00020912F03309130032C9FC0012D9F900D5F
:1005D0003C9F900D112434E0969587953A95E1F76C
:1005E0000E94F80C80912B0390912C03892B21F011
:1005F0008BE391E00E94C10280E00E94870020917D
:100600002D0330912E0380912F0390913003281BEE
:10061000390B2C9FC0012D9F900D3C9F900D1124F4
:1006200024E0969587952A95E1F70E94F80CBBCFB8
:100630000C946A02CF93DF930E94EB00EC0189E1F6
:1006400091E00E946A028C0F9D1FDF91CF91089567
:10065000CF92DF92EF92FF92CF93DF936C01990FCD
:10066000EE08FF08F7FE25C0E091BD04F091BE043E
:100670000190F081E02D6DE28DEB94E00995EC01A5
:1006800066277727CB016C197D098E099F094AE0FF
:100690000E947D02C80FD91F89E191E00E946A0281
:1006A0008C0F9D1FDF91CF91FF90EF90DF90CF9047
:1006B00008954AE0C701B6010E947D02EC01ECCF2B
:1006C000CF93DF93EC0188819981009711F00E940C
:1006D0009D15198218821D821C821B821A82DF914D
:1006E000CF910895FC0180819181009711F00C94C5
:1006F0009D150895FC0180819181009711F00C9463
:10070000261660E070E0CB010895FC01248135815C
:10071000232B39F421E0FB018081882349F020E07C
:1007200007C0808191810E948A1721E0892BB9F747
:10073000822F08950F931F93CF93DF938C01EB01CA
:10074000FC01808191810097E1F0688179816115D8
:100750007105A9F0428153812C813D8142175307D5
:1007600070F00E9493178C819D81F801958384839A
:100770001D821C82DF91CF911F910F9108950E94DD
:100780009D1588819981F801918380838A819B815D
:10079000938382838C819D819583848319821882BF
:1007A0001B821A82E5CF0F931F93CF93DF93EC0147
:1007B00088819981009759F02A813B812617370754
:1007C00030F081E0DF91CF911F910F9108958B015F
:1007D0006F5F7F4F0E94B216009759F0998388830C
:1007E0001B830A832C813D81232B59F7FC01108246
:1007F000E8CF80E0E7CFEF92FF920F931F93CF9364
:10080000DF93EC017B018A01BA010E94D3038111BD
:100810000BC0CE010E946003CE01DF91CF911F91EA
:100820000F91FF90EF9008951D830C83B70188818D
:1008300099810E949317F0CFFC01118210821382DC
:1008400012821582148250E040E06BE171E00C945A
:10085000FB03FB0101900020E9F73197AF01461B34
:10086000570B0C94FB03AF92BF92CF92DF92EF92A3
:10087000FF920F931F93CF93DF93EC015B016A010B
:1008800079012417350720F48D2D6901E42EF82E07
:10089000198218821B821A821D821C8250E040E05D
:1008A0006BE171E0CE010E94FB03D50114960D911E
:1008B0001C91C016D106E8F4E016F10608F4870191
:1008C000D501ED91FC911197E00FF11FF08010829E
:1008D0006D917C916C0D7D1DCE0161157105A9F0A6
:1008E0000E942904F50180819181080F191FD80108
:1008F000FC92CE01DF91CF911F910F91FF90EF906D
:10090000DF90CF90BF90AF9008950E946003EACF30
:100910000F931F93CF93DF938C01EB010E949C16E2
:100920008883C80101960E949C168983CE01DF91BD
:10093000CF911F910F910895FF920F931F93CF9323
:10094000DF93EC018B01FB01F0800E949C16F816EE
:1009500021F06F2DCE010E94A416F801F18021969E
:10096000CE010E949C16F81621F06F2DCE010E9438
:10097000A416C801DF91CF911F910F91FF900895A8
:100980000F931F93CF93DF9300D0CDB7DEB7E091E5
:10099000CD04F091CE0482E08083E091C904F0910F
:1009A000CA041082E091CB04F091CC0480E18083F2
:1009B0001092D504E091D104F091D20486E08083B6
:1009C000E091CF04F091D004808180618083E09138
:1009D000CF04F091D004808188608083E091CF04BF
:1009E000F091D004808180688083E091CF04F09101
:1009F000D00480818F7D808390E080E00E949C16EF
:100A0000182F88E691E00E941803612F70E090E0B3
:100A100080E04AE00E947D0289E191E00E946A0242
:100A200088E791E00E9418038AEA90E00E94280378
:100A30001A3A09F44CC08AE891E00E94C10281E0B0
:100A400090E09093300380932F0325E030E03093C3
:100A50002E0320932D0390932C0380932B036FE29E
:100A600073E086E090E00E949C046DE273E081E018
:100A700090E00E949C046BE273E08BE090E00E94A7
:100A80009C048AEA90E09A838983BE016F5F7F4F5E
:100A900090E080E00E949C0410E000E022E040E84A
:100AA00050E06FEF71E08FEC92E00E94AA1222E01A
:100AB00040E850E060E172E08BEA95E00E94AA1203
:100AC0000F900F90DF91CF911F910F9108958EEBB2
:100AD00091E00E94C1026FE273E086E090E00E9424
:100AE000880485EE91E00E94180380912F03909175
:100AF00030030E9428036DE273E081E090E00E94E1
:100B000088048DEE91E00E94180380912D0390914E
:100B10002E030E94280380912F039091300320918F
:100B20002D0330912E032817390724F490932E03B8
:100B300080932D036BE273E08BE090E00E948804C9
:100B400088EF91E00E94180380912B0390912C0371
:100B50000E942803A1CFCF93DF93CDB7DEB76E9766
:100B60000FB6F894DEBF0FBECDBFCE010D960E942A
:100B70001C04CE0143960E941C04CE0149960E949B
:100B80001C046BE171E0CE010D960E9429048DEBEF
:100B900094E00E946901892B91F18DEB94E00E9411
:100BA0006901181619069CF78DEB94E00E94470125
:100BB000182FE091BD04F091BE040190F081E02D6A
:100BC000682F8DEB94E0099519831A8209891A8997
:100BD0000F5F1F4FB801CE010D960E94D3038823EB
:100BE000B1F22D853E8589899A89BE016F5F7F4F5D
:100BF000820F931F0E9493171A8B098BC8CF2989E4
:100C00003A89C90101978217930728F4ED85FE857B
:100C1000309709F095C010922A03EAE2F3E0808150
:100C20008A3009F0B4CFCE010D960E941A031886BF
:100C30001F821A8619861C861B866D857E85611526
:100C4000710531F049895A89CE0107960E94FB034C
:100C5000CB84DC84EF80F884C114D10471F06DE39F
:100C600070E0C7010E947F17009739F08C010E19C0
:100C70001F090F3F100709F06BC0E114F10409F4DC
:100C800062C0A601B701CE0143960E94FB036BE14F
:100C900071E0CE0149960E942904CE0107960E9478
:100CA000720380912B0390912C03892B21F084E215
:100CB00092E00E94180380912B0390912C03892BC2
:100CC00021F0CE0143960E94EB0080912B0390917E
:100CD0002C03892B21F080E392E00E94180380917D
:100CE0002B0390912C03892B21F0CE0149960E9471
:100CF000EB0080912B0390912C03892B21F085E34D
:100D000092E00E94C1026BE171E0CE0149960E941F
:100D10008503882309F474C067E372E0CE0143962B
:100D20000E948503882309F440C08AE892E00E946B
:100D3000180380912D0390912E030E94280321CF48
:100D4000E80FF91F6CCFCE0143960E9460039FCF3E
:100D5000980150E040E0BE01695F7F4FCE010196EF
:100D60000E943304BE016F5F7F4FCE0143960E9405
:100D70009A03CE0101960E9472032B853C85A8013F
:100D80004F5F5F4FBE01695F7F4FCE0101960E94AA
:100D90003304BE016F5F7F4FCE0149960E949A03D4
:100DA000CE0101960E94720378CF63E472E0CE0117
:100DB00043960E948503882349F083EC92E00E94C9
:100DC000180380912F0390913003B7CF6CE472E049
:100DD000CE0143960E948503882349F08EEF92E06E
:100DE0000E94180380912B0390912C03A6CF83E5DA
:100DF00092E00E941803CE0143960E941A03C1CECE
:100E000080912B0390912C03892B21F083E792E0B2
:100E10000E94C10265EE72E0CE0143960E948503F6
:100E2000882319F182E892E00E941803CE014996C6
:100E30000E941A03CE0149960E947A0320912F0343
:100E4000309130038901330F220B330B061717073C
:100E5000280739072CF470932E0360932D0391CE4D
:100E600086E992E00E94C1028CCE63EB72E0CE0173
:100E700043960E948503882309F18BEB92E00E9440
:100E80001803CE0149960E941A03CE0149960E948A
:100E90007A0320912D0330912E038901330F220B09
:100EA000330B60177107820793072CF4709330039C
:100EB00060932F0366CE8CEC92E0D4CF60EF72E0AB
:100EC000CE0143960E948503882389F086EF92E045
:100ED0000E941803CE0149960E941A03CE0149963A
:100EE0000E947A0370932C0360932B034ACE85E013
:100EF00093E07FCF1F920F920FB60F9211242F9382
:100F00003F938F939F93AF93BF9380915904909198
:100F10005A04A0915B04B0915C043091580423E022
:100F2000230F2D3758F50196A11DB11D20935804AC
:100F30008093590490935A04A0935B04B0935C048B
:100F40008091540490915504A0915604B091570497
:100F50000196A11DB11D8093540490935504A09354
:100F60005604B0935704BF91AF919F918F913F91D9
:100F70002F910F900FBE0F901F90189526E8230F0A
:100F80000296A11DB11DD2CF1F920F920FB60F92E4
:100F900011242F933F934F935F936F937F938F937E
:100FA0009F93AF93BF93EF93FF938DEB94E00E94D9
:100FB0009301FF91EF91BF91AF919F918F917F919D
:100FC0006F915F914F913F912F910F900FBE0F90B6
:100FD0001F9018951F920F920FB60F9211242F9306
:100FE0008F939F93EF93FF93E091CD04F091CE0404
:100FF0008081E091D304F091D40482FD1BC09081E4
:101000008091D6048F5F8F732091D704821741F0AF
:10101000E091D604F0E0E354FB4F958F8093D60423
:10102000FF91EF919F918F912F910F900FBE0F9095
:101030001F9018958081F4CFCF93DF93FC01A0859A
:10104000B1858281938124813581EC013D832C839C
:10105000C481D5819B838A8311968D919C9112972F
:101060008E179F0721F41296DC93CE931197118669
:1010700010868C9181508C938C91DF91CF91089543
:101080000F931F93CF93DF938C01FB01808191819C
:10109000D80113968F3F9807F1F4E801AF81B88526
:1010A00012968D919C91139793838283EC01FD831B
:1010B000EC83B583A4831396FC93EE931297118768
:1010C0000087F80180818F5F8083DF91CF911F912E
:1010D0000F910895D90112962D913C911397E90132
:1010E0004881598184179507A8F7DACFFC01039648
:1010F000928381832FEF3FEF34832383968385830D
:1011000090878783108208950FB6F8940F92FC01A0
:10111000928D0F900FBE81E0911180E00895E091D3
:101120006604F09167048081811107C08FEF9FEF03
:1011300090935104809350040895E0916604F091D7
:1011400067040580F681E02D80819181F1CFFC015B
:1011500073836283918780874617570790F0421BFD
:10116000530B8485958548175907C8F4BF016E5FF6
:101170007F4F80914C0490914D040E94400880E084
:1011800008954217530718F46217730740F4BF011C
:101190006E5F7F4F80914E0490914F04EECF81E0BF
:1011A0000895FF920F931F93CF93DF93EC01F62ED8
:1011B00000916104109162048091260390912703AD
:1011C00002960E941C08CF3FDC07E9F5FF20D9F109
:1011D000E0916904F0916A04A0912603B09127037D
:1011E0001596FC93EE931497A0912603B0912703D4
:1011F0008481958117969C938E93169780912603F0
:1012000090912703A481B581029613969C938E93A7
:1012100012978091260390912703029695838483E9
:10122000E0912603F091270388E694E09387828774
:10123000809168048F5F80936804DF91CF911F9144
:101240000F91FF900895C00FD11FE0912603F091F8
:101250002703D383C2836091260370912703C017AD
:10126000D10768F480916404909165046E5F7F4FAC
:10127000DF91CF911F910F91FF900C9440088091C6
:101280006604909167046E5F7F4F0E9440088091D2
:10129000500490915104C817D90778F6D09351049F
:1012A000C0935004CACFFC01DB010FB6F8940F9233
:1012B00040916104509162042D913C9111972F3F10
:1012C000320711F1818192816091630470817617F8
:1012D00049F04817590730F01D921C9281E00F9099
:1012E0000FBE0895481B590B42175307A8F7241B3C
:1012F000350B2D933C93809163048083809161042E
:10130000909162049283818380E0E9CFCF93DF9351
:10131000DC011596ED91FC910680F781E02DA48902
:10132000B5898685978520893189EC013D832C8399
:10133000C089D1899B838A83CF010C9611962D9108
:101340003C9112972817390721F41296DC93CE931B
:101350001197158A148A2C9121502C9320915E04A8
:10136000211157C0A285B38584819581268137815B
:10137000EC013D832C83C681D7819B838A83CF0177
:10138000029611962D913C9112972817390721F456
:101390001296DC93CE931197138612862C912150CE
:1013A0002C93C6892091B9042C1710F4C093B9046A
:1013B00029E02C9FE0011124CB56DB4F0980DA8114
:1013C000C02DD583C4834C815D8157834683AC8116
:1013D000BD8113969C938E9312979D838C83A689CF
:1013E000A29FD0011124AB56BB4FB387A2878C912B
:1013F0008F5F8C93A0912603B09127039689569610
:101400008C91891730F581E080935D04DF91CF9155
:101410000895A0917B04B0917C04B787A6871496A9
:101420002D913C911597318B208B1496CD91DC91A9
:1014300015979B838A8315969C938E9314978AE7BE
:1014400094E0958B848B80917A048F5F80937A04EB
:10145000D1CF80E0DBCFEF92FF920F931F93CF931A
:10146000DF93EC010FB6F8940F921E8D7C0181E1A1
:10147000E80EF11C01E01116D4F08FEF8E8F0F9063
:101480000FBE0FB6F8940F921D8D7E0188E0E80E16
:10149000F11C01E01116B4F08FEF8D8F0F900FBE8D
:1014A000DF91CF911F910F91FF90EF90089589895F
:1014B000882319F3C7010E948609811100935D04F6
:1014C0001150D9CF8885882339F3C7010E94860936
:1014D000811100935D041150DDCF0FB6F8940F9287
:1014E00080916104909162040F900FBE08958091E5
:1014F0005E048F5F80935E0408950F920FB6F89498
:101500000F921F9211242F923F924F925F926F92EF
:101510007F928F929F92AF92BF92CF92DF92EF9283
:10152000FF920F931F932F933F934F935F936F936C
:101530007F938F939F93AF93BF93CF93DF93EF935B
:10154000FF93A0912603B09127030DB60D920EB61E
:101550000D9280915E04882321F081E080935D04E8
:1015600054C010925D04A0912603B0912703E0912E
:101570002603F09127032D913C918789908D821746
:10158000930750F0809126039091270380912603C2
:10159000909127030E9450022091B90489E001C074
:1015A0002150422F50E0849FF001859FF00D1124BF
:1015B000EB56FB4F9081992399F3A181B28112964A
:1015C0000D90BC91A02DB283A183289FC00111244E
:1015D00088569B4FA817B90729F412968D919C91B4
:1015E0009283818389E0849FF001859FF00D11240F
:1015F000EB56FB4F0180F281E02D8681978190931D
:101600002703809326032093B904A0912603B09169
:101610002703CD91CDBFDD91DEBFFF91EF91DF912B
:10162000CF91BF91AF919F918F917F916F915F917A
:101630004F913F912F911F910F91FF90EF90DF906D
:10164000CF90BF90AF909F908F907F906F905F9062
:101650004F903F902F901F900F900FBE0F900895C6
:101660008F929F92BF92CF92DF92EF92FF920F9351
:101670001F93CF93DF930FB6F8940F9280915E047F
:10168000815080935E0480915E04882379F080E02D
:101690000F900FBEDF91CF911F910F91FF90EF90B0
:1016A000DF90CF90BF909F908F9008958091BC0461
:1016B000882369F3E0907F04F0908004F0E0E0E09C
:1016C00039E041E080917A0481115EC0EF2B11F086
:1016D0000E948F08E0905204F0905304E114F1044A
:1016E00009F47DC189E0D82ECC24C3940FEF1FEFFD
:1016F00080915E04811161C1C0916104D091620446
:101700004E018FEF881A980A9092620480926104C9
:1017100081149104B9F4809166049091670420913A
:1017200064043091650430936704209366049093B9
:10173000650480936404809163048F5F80936304E5
:101740000E948F088091500490915104B12C88160A
:10175000990608F026C1E0912603F0912703E68957
:10176000DE9EF0011124EB56FB4F8081823010F099
:10177000BB24B39480915D04811103C0BB2009F4A4
:1017800025C1C0925D0422C1D7011696ED91FC914E
:10179000A489B5896685778580899189EB019D83C8
:1017A0008C8380899189EC017B836A83BF01645FAC
:1017B0007F4F11960D911C9112970617170721F470
:1017C00012969C938E931197158A148A8C9181504E
:1017D0008C93A285B3858481958166817781EC01A4
:1017E0007D836C8366817781EB019B838A83CF0144
:1017F000029611960D911C9112970817190721F462
:1018000012967C936E931197138612862C91215019
:101810002C93A6892091B9042A1710F4A093B90437
:101820003A9FD0011124AB56BB4F11960D90BC913D
:10183000A02DB583A48314966D917C911597778321
:10184000668314966D917C911597EB019B838A8337
:1018500015969C938E9314979689939FD00111248B
:10186000AB56BB4FB387A2878C918F5F8C93A091AF
:101870002603B091270356968C91981708F422CF2F
:1018800040935D041FCFE0916604F09167040580EA
:10189000F681E02D0680F781E02D82819381881604
:1018A000990628F4909351048093500454CFC28534
:1018B000D3858481958126813781DC0115963C93FF
:1018C0002E93149726813781D90113969C938E937A
:1018D0001297CF01029649815A814817590711F48E
:1018E0003A83298313861286288121502883A4896C
:1018F000B5891097F9F02685378540895189E90126
:101900005D834C8340895189EA013B832A83119688
:101910006D917C9112979F01245F3F4F621773076F
:1019200021F412965C934E931197158A148A2C9188
:1019300021502C93A6892091B9042A1710F4A09362
:10194000B904DA9ED0011124AB56BB4F11960D900D
:10195000BC91A02DB583A48314962D913C9115972D
:101960003783268314962D913C911597E9019B832B
:101970008A8315969C938E93149796899D9DD0018A
:101980001124AB56BB4FB387A2878C918F5F8C938A
:10199000E0912603F09127038689981710F0BB2465
:1019A000B394E0916604F0916704808181116BCF5C
:1019B0001093510400935004CECE80915204909124
:1019C000530401969093530480935204D1E0ED1A8E
:1019D000F10809F08DCE10925304109252048091B8
:1019E0005D04882309F453CE0E947D0A81E050CE25
:1019F000CF93DF93EC01892B29F40E947D0ADF91BC
:101A0000CF9108950E94770A60E0CE010E94D1082C
:101A10000E94300B882389F3F2CF0F920FB6F8940F
:101A20000F921F9211242F923F924F925F926F92CA
:101A30007F928F929F92AF92BF92CF92DF92EF925E
:101A4000FF920F931F932F933F934F935F936F9347
:101A50007F938F939F93AF93BF93CF93DF93EF9336
:101A6000FF93A0912603B09127030DB60D920EB6F9
:101A70000D9213BE80915E048111F9C080916104C2
:101A800090916204019690936204809361040097A0
:101A900081F520916604309167044091640450916F
:101AA0006504509367044093660430936504209363
:101AB0006404209163042F5F20936304E091660423
:101AC000F09167042081211107C02FEF3FEF309381
:101AD0005104209350040DC0E0916604F091670416
:101AE0000580F681E02D20813181309351042093CF
:101AF000500420915004309151048217930710F440
:101B000020E0A1C020E039E0D32EE0916604F091FE
:101B100067043081311107C08FEF9FEF909351041C
:101B20008093500490C0E0916604F09167040580B2
:101B3000F681E02D0680F781E02D428153818417E4
:101B4000950728F450935104409350047CC0A2851B
:101B5000B3854481558166817781EA017D836C83F9
:101B600066817781EB015B834A83AF014E5F5F4FF4
:101B700011960D911C9112970417150721F41296D6
:101B80007C936E931197138612863C9131503C934F
:101B9000A489B5891097F9F0668577850089118940
:101BA000EB011D830C8300891189E8017B836A8323
:101BB0001196ED90FC901297BF01645F7F4FE6167F
:101BC000F70621F412961C930E931197158A148A26
:101BD0003C9131503C93A6893091B9043A1710F4E6
:101BE000A093B904DA9ED0011124AB56BB4F1196D5
:101BF0000D90BC91A02DB583A48314966D917C911A
:101C000015977783668314966D917C911597EB01F8
:101C10005B834A8315965C934E93149746894D9D3A
:101C2000D0011124AB56BB4FB387A2873C913F5FD5
:101C30003C93E0912603F09127033689431708F47B
:101C400064CF21E062CFE0912603F0912703E6897B
:101C5000D9E0ED9FF0011124EB56FB4F80818230DB
:101C600008F021E080915D0481110EC00AC08091CE
:101C7000520490915304019690935304809352041C
:101C80005FC0222309F45CC080915E04882321F0A8
:101C900081E080935D0454C010925D04A0912603FE
:101CA000B0912703E0912603F09127032D913C91F9
:101CB0008789908D8217930750F080912603909129
:101CC000270380912603909127030E9450022091C0
:101CD000B90489E001C02150422F50E0849FF001F7
:101CE000859FF00D1124EB56FB4F9081992399F3BA
:101CF000A181B28112960D90BC91A02DB283A183D7
:101D0000289FC001112488569B4FA817B90729F4B2
:101D100012968D919C919283818389E0849FF0013A
:101D2000859FF00D1124EB56FB4F0180F281E02DD1
:101D30008681978190932703809326032093B9048B
:101D4000A0912603B0912703CD91CDBFDD91DEBFD9
:101D5000FF91EF91DF91CF91BF91AF919F918F91C3
:101D60007F916F915F914F913F912F911F910F91B3
:101D7000FF90EF90DF90CF90BF90AF909F908F90AB
:101D80007F906F905F904F903F902F901F900F909B
:101D90000FBE0F900895AF92BF92CF92DF92EF9255
:101DA000FF920F931F93CF93DF9300D000D01F9229
:101DB000CDB7DEB78C017B011D821C8280E06801FB
:101DC00098E0C90ED11C0FB6F8940F92D8015A961C
:101DD0002C915A975B969C915B97291708F0B0C09D
:101DE0005A96DC905A975C964C915C9741118DC045
:101DF0008D919C91892B11F080E00AC0F801E4805C
:101E0000F580E114F10439F580E0F80115821482BF
:101E1000D394D8015A96DC925A9751969C91992363
:101E200021F0C80141960E94860981110E947D0A15
:101E30000F900FBE81E00F900F900F900F900F90BA
:101E4000DF91CF911F910F91FF90EF90DF90CF9096
:101E5000BF90AF900895D70192968C919297815040
:101E600092968C93929756962C91569791969C9118
:101E7000291751F28111C8CF5701B2E0AB0EB11C46
:101E8000C5010E941C08F70181A1868B482F50E0F4
:101E900024E030E0241B350B358724879091B9046A
:101EA000981710F48093B90489E0849FD001859F2E
:101EB000B00D1124AB56BB4F11960D90BC91A02DC7
:101EC000F701B583A48314962D913C911597378320
:101ED00026831496ED91FC911597B382A2821596F4
:101EE000BC92AE921497D7015696EC915697E89F04
:101EF000F0011124EB56FB4F1B96FC93EE931A97BF
:101F000080818F5F808381E080CF50E0B70112969F
:101F10008D919C910E946F17F801848D22813381ED
:101F2000820F932F911D93838283248135818217A1
:101F3000930708F461CF80819181938382835CCF82
:101F40002C813D81232B21F40F900FBE80E073CFB5
:101F5000811109C08091630489838091610490910B
:101F600062049B838A830F900FBE0E94770A0FB68C
:101F7000F8940F92F801858D8F3F09F4158ED801E2
:101F80005E968C915E978F3F11F45E961C920F9037
:101F90000FBEBE016C5F7F4FCE0101960E945309B8
:101FA00081112AC00FB6F8940F92F801928D838D9B
:101FB0000F900FBE98131AC0AC80BD8060912603AD
:101FC00070912703645F7F4FC6010E94400861E063
:101FD000C5010E94D108C8010E942B0A0E94300B43
:101FE000811102C00E947D0A81E0EDCEC8010E94ED
:101FF0002B0A0E94300BF8CFC8010E942B0A0E94C6
:10200000300BA4CFCF93DF9300D000D01F92CDB779
:10201000DEB79C0180915F04909160040097B9F055
:1020200019827B836A833D832C832091BB04BE018C
:102030006F5F7F4F211120915E040E94CB0E0F90A5
:102040000F900F900F900F90DF91CF91089580E047
:10205000F6CFEF92FF920F931F93CF93DF93E09110
:102060004E04F0914F048081811113C080914C0483
:1020700090914D0490934F0480934E04F0934D043F
:10208000E0934C04DF91CF911F910F91FF90EF905F
:1020900008950580F681E02D00811181C681D781E8
:1020A0007E0182E0E80EF11CC7010E941C08E8894D
:1020B000F989CE0109958A8982FFD1CF8C859D85CA
:1020C000800F911F0817190760F49B838A83D987B3
:1020D000C887B70180914E0490914F040E94400838
:1020E000BECFB801CE010E940210B9CFCF93DF93CB
:1020F000009751F0EC010E94770ACE010E949D15D5
:10210000DF91CF910C94300BDF91CF910895CF9355
:10211000DF93CDB7DEB72A970FB6F894DEBF0FBEB8
:10212000CDBFE0914E04F0914F041081F12CE12CD1
:10213000112329F00580F681E02DE080F1800E94D6
:10214000770A0E946D0A6C0180914A0490914B04B9
:10215000C816D90608F07BC00E942910D0924B0403
:10216000C0924A040E94300B00915F0410916004F9
:102170001A86198680E06801B1E1CB0ED11C0FB63A
:10218000F8940F92F801F28CFF2009F441C1448DBC
:102190004423C1F050E086819781840F951F978377
:1021A0008683248135818217930720F08081918175
:1021B00097838683D80116966D917C91CE01019606
:1021C0000E946F17FA94F801F28E8085882339F007
:1021D000C80108960E94860981110E947D0A0F900D
:1021E0000FBED980D7FCC0CF0C811D81F80182853C
:1021F0009385892B21F0C80102960E941C080E9439
:102200006D0A7C0180914A0490914B04E816F9060E
:1022100010F40E942910F0924B04E0924A04F9E075
:10222000FD1508F4A1CFED2DDD0CFF0BE35EFE4E96
:10223000D80152968C910C94BC17CB11CB11CB11B9
:102240000312EE11FD11CB11CB110312EE11D0923E
:102250004B04C0924A04112399F1CE14DF04B8F163
:102260000E94300BE0914E04F0914F040580F681FE
:10227000E02D06811781C80102960E941C08D80132
:1022800052968C91529782FF17C01C966D917C914B
:102290006E0D7F1D9701A601C8010E94A708882323
:1022A00021F0B701C8010E940210D8015096ED91AB
:1022B000FC91C801099558CF8E7FF801828BF5CF2C
:1022C000E0914C04F0914D04808161E0811160E067
:1022D00000915F04109160040FB6F8940F92F8011A
:1022E000858D8F3F09F4158ED8015E968C915E978F
:1022F0008F3F11F45E961C920F900FBEF801828DF5
:1023000081113FC00288F389E02DA0912603B0918E
:1023100027031F96FC93EE931E97A0912603B0917E
:1023200027038481958151969C938E935097809139
:10233000260390912703A481B5810C9613969C9354
:102340008E93129780912603909127030C96958384
:102350008483E0912603F0912703C8014196958B71
:10236000848BD80151968C9151978F5F51968C93A5
:10237000C7018C199D09662311F08FEF9FEF0E9412
:10238000D108C8010E942B0A0E94300B8111ECCEAB
:102390000E947D0AE9CE8160F801828BCA80DB80D1
:1023A000648575856C0D7D1D9601A701C8010E948D
:1023B000A708882309F4D8CED8015096ED91FC9156
:1023C000C8010995F801828982FFCECE64857585A2
:1023D0006C0D7D1DC8010E940210C6CE8160F801FF
:1023E000828B6A817B81758764876E0D7F1D970163
:1023F000A701C8010E94A708B7CE81FD04C0C8018B
:102400000E947610B1CE8E7FD80152968C93ACCEBE
:1024100029853A85232B19F40F900FBE82CE8111A6
:1024200009C0809163048E8380916104909162045D
:1024300098878F830F900FBE0E94770A0FB6F8948B
:102440000F92D8015D968C915D978F3F11F45D9648
:102450001C92F801868D8F3F09F4168E0F900FBEE7
:10246000BE01675F7F4FCE0106960E94530981111E
:1024700025C0C8010E9484088823D1F0E984FA8429
:102480006091260370912703645F7F4FC6010E940D
:10249000400861E0C7010E94D108C8010E942B0AD0
:1024A0000E94300B811102C00E947D0A81E067CE3C
:1024B000C8010E942B0A0E94300BF8CFC8010E946D
:1024C0002B0A0E94300BC8010E948408882371F3F4
:1024D00028CE80914904811109C0809195048230F1
:1024E00010F00E947D0A0E948C01F3CF0FB6F89481
:1024F0000F92E0917604F0917704C681D781CE01E6
:1025000002960E941C088091BC0481508093BC04F8
:10251000809149048150809349040F900FBE8F89A8
:10252000988D0E947610CE010E947610D2CFCF9364
:10253000DF93EC010E94770ACE010E940115EC01A5
:102540000E94300B209711F40E945D02CE01DF91B2
:10255000CF9108957F928F929F92AF92BF92CF9228
:10256000DF92EF92FF920F931F93CF93DF93982EFA
:10257000A92E762E872E7A01B22ECA010E949712BA
:102580006C01892B09F4F2C088E290E00E94971256
:10259000EC01892B09F4E7C0D88ECF8AA70165EA40
:1025A00070E0C6010E94781781E0E81AF108EF890F
:1025B000F88DEE0DFF1D672D782DCE0149969B01FC
:1025C000285F3F4FDB014D91BD01DC014D93CD01F3
:1025D000AB0141505109DA014C91442319F06217C3
:1025E000730781F718A2BE8AB9A21AA21B861A869F
:1025F0001D8A1C8AD987C88784E090E08B199109CD
:102600009D878C87DB8BCA8B84E09E012D5D3F4FBD
:10261000D9011D928A95E9F71FA29082DF011197D7
:10262000AC9211971C92119780E88C9311971C9291
:1026300057971C9211971C92B397F983E883011561
:10264000110519F0F801D183C0830FB6F8940F92E9
:102650008091BC048F5F8093BC048091260390918D
:102660002703892B09F091C0D0932703C093260339
:102670008091BC04813081F585E994E00E94760860
:102680008EE994E00E94760887EA94E00E9476083A
:1026900080EB94E00E9476088CE894E00E94760833
:1026A00083E894E00E9476088AE794E00E94760826
:1026B00081E794E00E94760888E694E00E9476081C
:1026C0008CE894E0909367048093660483E894E038
:1026D00090936504809364048091BA048F5F809323
:1026E000BA04AE898091B9048A1710F4A093B90492
:1026F00029E02A9FD0011124AB56BB4F11960D90B3
:10270000BC91A02DBD83AC8314968D919C9115979F
:102710009F838E831496ED91FC911597CE010296BE
:102720009383828315969C938E931497EE89E29FF0
:10273000F0011124EB56FB4FFB87EA8780818F5F06
:1027400080830F900FBE8091BB04882351F0E091ED
:102750002603F091270396898E89981710F40E941A
:102760007D0A81E004C0C6010E9476108FEFDF91E0
:10277000CF911F910F91FF90EF90DF90CF90BF907E
:10278000AF909F908F907F9008958091BB048111AE
:10279000A3CFE0912603F091270396898E898917AC
:1027A00008F49ACFD0932703C093260395CF0F93B5
:1027B0001F93CF93DF9307E414E020E040EC50E058
:1027C0006BE571E089E692E10E94AA12813009F07E
:1027D000B3C00FB6F8940F9280915F04909160049B
:1027E000892B09F04FC08CE394E00E94760883E3C4
:1027F00094E00E9476088CE394E090934F048093D9
:102800004E0483E394E090934D0480934C0481E55F
:1028100090E00E949712EC01009781F14F96998306
:1028200088838AE08B8F85E08C8F0FB6F8940F92A7
:10283000888199812B8D4C8DBC01249F600D711D69
:1028400011247D836C831A8E9B838A832150330BE2
:10285000429FB001439F700D1124860F971F9F83E5
:102860008E838FEF8D8F8E8FCE0108960E94760813
:10287000CE0141960E9476080F900FBED09360045F
:10288000C0935F040F900FBE80915F04909160042D
:10289000892B09F451C005E414E023E045E550E03C
:1028A00060E671E087E890E10E94AA12813009F0A9
:1028B00043C0F8942FEF3FEF30935104209350041E
:1028C0008093BB041092620410926104A89588E181
:1028D00090EC0FB6F894A895809360000FBE90938B
:1028E0006000A0912603B0912703CD91CDBFDD916B
:1028F000DEBFFF91EF91DF91CF91BF91AF919F919B
:102900008F917F916F915F914F913F912F911F9187
:102910000F91FF90EF90DF90CF90BF90AF909F907E
:102920008F907F906F905F904F903F902F901F906F
:102930000F900FBE0F90089580910001DF91CF910D
:102940001F910F9108950E940D0D1895EDEBF4E085
:102950001382128288EE93E0A0E0B0E08483958336
:10296000A683B7838BE091E09183808385EC90E030
:102970009587848784EC90E09787868780EC90E049
:10298000918B808B81EC90E0938B828B82EC90E03A
:10299000958B848B86EC90E0978B868B118E128EB4
:1029A000138E148E08951092320310923103E3E3D4
:1029B000F3E080E091E0DF019C011D922150304066
:1029C000E1F708950E94A6140C94D3140E94FD0010
:1029D00020910501309106018FEF98E0821B930B47
:1029E00090930201809301010E94C0040E94D713BA
:1029F0000E94C004C0E0D0E02097F1F30E947F0164
:102A0000FBCF0F931F93CF93DF938230910510F488
:102A100082E090E0E0915C05F0915D0530E020E01F
:102A2000B0E0A0E0309799F42115310509F44AC0CF
:102A3000281B390B24303105D8F58A819B8161151B
:102A4000710589F1FB0193838283FE0111C04081EE
:102A500051810281138148175907E0F0481759073F
:102A600099F4109761F012960C93129713961C9399
:102A70003296CF01DF91CF911F910F91089500936E
:102A80005C0510935D05F4CF2115310551F0421717
:102A9000530738F0A901DB019A01BD01DF01F801FC
:102AA000C1CFEF01F9CF90935D0580935C05CDCF49
:102AB000FE01E20FF31F8193919322503109398374
:102AC0002883D7CF20915A0530915B05232B41F401
:102AD000209103013091040130935B0520935A0546
:102AE00020910101309102012115310541F42DB7EA
:102AF0003EB74091050150910601241B350BE09132
:102B00005A05F0915B05E217F307A0F42E1B3F0B6B
:102B10002817390778F0AC014E5F5F4F241735074F
:102B200048F04E0F5F1F50935B0540935A05819309
:102B300091939FCFF0E0E0E09CCFCF93DF9300979D
:102B4000E9F0FC01329713821282A0915C05B091EA
:102B50005D05ED0130E020E01097A1F42081318186
:102B6000820F931F20915A0530915B052817390772
:102B700009F061C0F0935B05E0935A05DF91CF91B6
:102B80000895EA01CE17DF07E8F54A815B819E01CF
:102B900041155105B1F7E901FB83EA834991599148
:102BA000C40FD51FEC17FD0761F480819181029657
:102BB000840F951FE90199838883828193819B8388
:102BC0008A83F0E0E0E012968D919C911397009734
:102BD000B9F52D913C911197CD010296820F931F6B
:102BE00020915A0530915B052817390739F630973F
:102BF00051F510925D0510925C05B0935B05A093B2
:102C00005A05BCCFD383C28340815181840F951F65
:102C1000C817D90761F44E5F5F4F88819981480FCB
:102C2000591F518340838A819B819383828321151D
:102C3000310509F0B0CFF0935D05E0935C059ECFC0
:102C4000FD01DC01C0CF13821282D7CF1F93FC019C
:102C500099278827BC01E89411911032E9F31930C3
:102C600010F01E30C8F31B3251F01D3249F4689445
:102C700006C00E945016610F711D811D911D11919A
:102C800010531A30B0F33EF490958095709561958D
:102C90007F4F8F4F9F4F1F910895F8940C94C21748
:102CA000592F482F372F262F660F771F881F991F00
:102CB000660F771F881F991F620F731F841F951F50
:102CC000660F771F881F991F08952F923F924F928A
:102CD0005F926F927F928F929F92AF92BF92CF92AC
:102CE000DF92EF92FF920F931F93CF93DF93CDB7B5
:102CF000DEB7CA1BDB0B0FB6F894DEBF0FBECDBF2D
:102D000009942A88398848885F846E847D848C84FD
:102D10009B84AA84B984C884DF80EE80FD800C8106
:102D20001B81AA81B981CE0FD11D0FB6F894DEBFE9
:102D30000FBECDBFED010895F999FECF92BD81BDC3
:102D4000F89A992780B50895262FF999FECF1FBAD2
:102D500092BD81BD20BD0FB6F894FA9AF99A0FBEC4
:102D600001960895B0E0A0E0E8EBF6E10C94671658
:102D70008C01009751F4CB010E9401158C01C80110
:102D8000CDB7DEB7E0E10C948316FC01E60FF71F28
:102D90009C0122503109E217F30708F49DC0D901C4
:102DA000CD91DC911197C617D70798F0C530D105A2
:102DB00030F3CE0104978617970708F3C61BD70B8D
:102DC0002297C193D1936D937C93CF010E949D155F
:102DD000D6CF5B01AC1ABD0A4C018C0E9D1EA09192
:102DE0005C05B0915D05512C412CF12CE12C109724
:102DF00031F580915A0590915B058815990509F088
:102E00005CC04616570608F058C0809101019091A9
:102E10000201009741F48DB79EB740910501509192
:102E20000601841B950BE817F90708F055C0F093CD
:102E30005B05E0935A05F90171836083A0CF8D9102
:102E40009C91119712966C90129713967C90139701
:102E5000A815B90559F56C0142E0C40ED11CCA147D
:102E6000DB0420F1AC014A195B09DA0112961597CF
:102E700080F06282738251834083D9016D937C9389
:102E8000E114F10471F0D7011396FC93EE931297BD
:102E900076CF22968C0F9D1FF90191838083F301D9
:102EA000EFCFF0935D05E0935C0569CF48165906B6
:102EB00008F42C017D01D3019ACFCB010E940115AA
:102EC0007C01009749F0AE01B8010E946F17C8015C
:102ED0000E949D15870153CF10E000E050CFFB0109
:102EE000DC0102C001900D9241505040D8F7089586
:102EF000DC0101C06D9341505040E0F70895FC01A2
:102F00008191861721F08823D9F799270895319761
:102F1000CF010895FB01DC018D9101908019011012
:102F2000D9F3990B0895FB01DC0101900D9200206B
:102F3000E1F70895A1E21A2EAA1BBB1BFD010DC0EB
:102F4000AA1FBB1FEE1FFF1FA217B307E407F50759
:102F500020F0A21BB30BE40BF50B661F771F881F35
:102F6000991F1A9469F760957095809590959B01CB
:102F7000AC01BD01CF010895EE0FFF1F0590F49144
:082F8000E02D0994F894FFCF45
:102F88000300005E05800000000000B50122023841
:102F9800010202690147015B010D0A005461736B6C
:102FA8005761746572436F6E74726F6C6C657220D2
:102FB8002D205741544552204F4E005461736B5792
:102FC80061746572436F6E74726F6C6C6572202DDC
:102FD800205741544552204F46460049444C45002D
:102FE800546D72205376630073746F72656443681E
:102FF80065636B56616C3D00454550524F4D5F43CC
:103008004845434B5F56414C3D00454550524F4D56
:10301800204E6F7420496E697469616C69736564C8
:10302800202D20496E697469616C6973696E672027
:1030380066726F6D2064656661756C747300496EA5
:10304800697469616C6973696E672066726F6D2057
:10305800454550524F4D2073746F726564207661F8
:103068006C756573006F6E536563733D00637963B8
:103078006C65536563733D0064656275673D005711
:103088006174657220436F6E74726F6C6C65720048
:10309800436F6D6D616E6420496E74657270726500
:1030A800746572007061727365436D64206B3D00D6
:1030B8002E20763D002E004359434C455F5345432F
:1030C800530A004F4E5F534543530A004445425547
:1030D800470A004552524F52202D20556E726563A3
:1030E8006F676E6973656420506172616D657465A0
:1030F80072200056206973206E6F7420656D70749D
:10310800790053657474696E67204359434C455F71
:10311800534543533D004552524F52202D206D7563
:1031280073742062652067726561746572207468C3
:10313800616E204F4E5F5345435300536574746965
:103148006E67204F4E5F534543533D004552524FE3
:103158005220206D757374206265206C657373202E
:103168007468616E204359434C455F53454353008F
:1031780044454255470053657474696E6720444559
:103188004255473D004572726F72202D20756E7250
:1031980065636F676E6973656420706172616D65E0
:0631A800746572200000B6
:00000001FF
